{
  "contractName": "DutchAuction",
  "abi": [
    {
      "constant": true,
      "inputs": [],
      "name": "duration",
      "outputs": [
        {
          "name": "",
          "type": "uint256"
        }
      ],
      "payable": false,
      "stateMutability": "view",
      "type": "function"
    },
    {
      "constant": true,
      "inputs": [],
      "name": "inicialPrice",
      "outputs": [
        {
          "name": "",
          "type": "uint256"
        }
      ],
      "payable": false,
      "stateMutability": "view",
      "type": "function"
    },
    {
      "constant": true,
      "inputs": [],
      "name": "decreaseRate",
      "outputs": [
        {
          "name": "",
          "type": "uint256"
        }
      ],
      "payable": false,
      "stateMutability": "view",
      "type": "function"
    },
    {
      "constant": true,
      "inputs": [],
      "name": "endTime",
      "outputs": [
        {
          "name": "",
          "type": "uint256"
        }
      ],
      "payable": false,
      "stateMutability": "view",
      "type": "function"
    },
    {
      "constant": true,
      "inputs": [],
      "name": "calcTokenPrice",
      "outputs": [
        {
          "name": "",
          "type": "uint256"
        }
      ],
      "payable": false,
      "stateMutability": "view",
      "type": "function"
    },
    {
      "constant": false,
      "inputs": [],
      "name": "claimTokens",
      "outputs": [],
      "payable": false,
      "stateMutability": "nonpayable",
      "type": "function"
    },
    {
      "constant": true,
      "inputs": [],
      "name": "wallet",
      "outputs": [
        {
          "name": "",
          "type": "address"
        }
      ],
      "payable": false,
      "stateMutability": "view",
      "type": "function"
    },
    {
      "constant": true,
      "inputs": [
        {
          "name": "",
          "type": "address"
        }
      ],
      "name": "bids",
      "outputs": [
        {
          "name": "",
          "type": "uint256"
        }
      ],
      "payable": false,
      "stateMutability": "view",
      "type": "function"
    },
    {
      "constant": false,
      "inputs": [],
      "name": "startAuction",
      "outputs": [],
      "payable": false,
      "stateMutability": "nonpayable",
      "type": "function"
    },
    {
      "constant": true,
      "inputs": [],
      "name": "ceiling",
      "outputs": [
        {
          "name": "",
          "type": "uint256"
        }
      ],
      "payable": false,
      "stateMutability": "view",
      "type": "function"
    },
    {
      "constant": true,
      "inputs": [],
      "name": "startTime",
      "outputs": [
        {
          "name": "",
          "type": "uint256"
        }
      ],
      "payable": false,
      "stateMutability": "view",
      "type": "function"
    },
    {
      "constant": true,
      "inputs": [],
      "name": "getOwner",
      "outputs": [
        {
          "name": "_owner",
          "type": "address"
        }
      ],
      "payable": false,
      "stateMutability": "view",
      "type": "function"
    },
    {
      "constant": false,
      "inputs": [
        {
          "name": "receiver",
          "type": "address"
        }
      ],
      "name": "bid",
      "outputs": [
        {
          "name": "amount",
          "type": "uint256"
        }
      ],
      "payable": true,
      "stateMutability": "payable",
      "type": "function"
    },
    {
      "constant": true,
      "inputs": [],
      "name": "totalReceived",
      "outputs": [
        {
          "name": "",
          "type": "uint256"
        }
      ],
      "payable": false,
      "stateMutability": "view",
      "type": "function"
    },
    {
      "constant": true,
      "inputs": [],
      "name": "finalPrice",
      "outputs": [
        {
          "name": "",
          "type": "uint256"
        }
      ],
      "payable": false,
      "stateMutability": "view",
      "type": "function"
    },
    {
      "constant": false,
      "inputs": [
        {
          "name": "newOwner",
          "type": "address"
        }
      ],
      "name": "changeOwner",
      "outputs": [
        {
          "name": "success",
          "type": "bool"
        }
      ],
      "payable": false,
      "stateMutability": "nonpayable",
      "type": "function"
    },
    {
      "constant": true,
      "inputs": [],
      "name": "stage",
      "outputs": [
        {
          "name": "",
          "type": "uint8"
        }
      ],
      "payable": false,
      "stateMutability": "view",
      "type": "function"
    },
    {
      "constant": false,
      "inputs": [
        {
          "name": "_duration",
          "type": "uint256"
        },
        {
          "name": "_inicialPrice",
          "type": "uint256"
        },
        {
          "name": "_decreaseRate",
          "type": "uint256"
        }
      ],
      "name": "setup",
      "outputs": [],
      "payable": false,
      "stateMutability": "nonpayable",
      "type": "function"
    },
    {
      "constant": true,
      "inputs": [],
      "name": "token",
      "outputs": [
        {
          "name": "",
          "type": "address"
        }
      ],
      "payable": false,
      "stateMutability": "view",
      "type": "function"
    },
    {
      "inputs": [
        {
          "name": "_wallet",
          "type": "address"
        },
        {
          "name": "_token",
          "type": "address"
        },
        {
          "name": "_ceiling",
          "type": "uint256"
        }
      ],
      "payable": false,
      "stateMutability": "nonpayable",
      "type": "constructor"
    },
    {
      "payable": true,
      "stateMutability": "payable",
      "type": "fallback"
    },
    {
      "anonymous": false,
      "inputs": [
        {
          "indexed": true,
          "name": "sender",
          "type": "address"
        },
        {
          "indexed": false,
          "name": "amount",
          "type": "uint256"
        }
      ],
      "name": "BidSubmission",
      "type": "event"
    },
    {
      "anonymous": false,
      "inputs": [
        {
          "indexed": false,
          "name": "oldOwner",
          "type": "address"
        },
        {
          "indexed": false,
          "name": "newOwner",
          "type": "address"
        }
      ],
      "name": "LogOwnerChanged",
      "type": "event"
    }
  ],
  "bytecode": "0x6060604052341561000f57600080fd5b60405160608061102083398101604052808051906020019091908051906020019091908051906020019091905050336000806101000a81548173ffffffffffffffffffffffffffffffffffffffff021916908373ffffffffffffffffffffffffffffffffffffffff16021790555060008373ffffffffffffffffffffffffffffffffffffffff1614806100a25750600081145b156100ac57600080fd5b81600160006101000a81548173ffffffffffffffffffffffffffffffffffffffff021916908373ffffffffffffffffffffffffffffffffffffffff16021790555082600260006101000a81548173ffffffffffffffffffffffffffffffffffffffff021916908373ffffffffffffffffffffffffffffffffffffffff160217905550806003819055506000600c60006101000a81548160ff0219169083600381111561015457fe5b0217905550505050610eb58061016b6000396000f300606060405260043610610107576000357c0100000000000000000000000000000000000000000000000000000000900463ffffffff1680630fb5a6b4146101475780632594e747146101705780632897183d146101995780633197cbb6146101c257806339f64b52146101eb57806348c54b9d14610214578063521eb2731461022957806362ea82db1461027e5780636b64c769146102cb578063753ed1bd146102e057806378e9792514610309578063893d20e8146103325780639cf5453d14610387578063a3c2c462146103c9578063a6b513ee146103f2578063a6f9dae11461041b578063c040e6b81461046c578063c75abf24146104a3578063fc0c546a146104d8575b6002600381111561011457fe5b600c60009054906101000a900460ff16600381111561012f57fe5b14151561013b57600080fd5b6101443361052d565b50005b341561015257600080fd5b61015a610732565b6040518082815260200191505060405180910390f35b341561017b57600080fd5b610183610738565b6040518082815260200191505060405180910390f35b34156101a457600080fd5b6101ac61073e565b6040518082815260200191505060405180910390f35b34156101cd57600080fd5b6101d5610744565b6040518082815260200191505060405180910390f35b34156101f657600080fd5b6101fe61074a565b6040518082815260200191505060405180910390f35b341561021f57600080fd5b610227610780565b005b341561023457600080fd5b61023c610945565b604051808273ffffffffffffffffffffffffffffffffffffffff1673ffffffffffffffffffffffffffffffffffffffff16815260200191505060405180910390f35b341561028957600080fd5b6102b5600480803573ffffffffffffffffffffffffffffffffffffffff1690602001909190505061096b565b6040518082815260200191505060405180910390f35b34156102d657600080fd5b6102de610983565b005b34156102eb57600080fd5b6102f3610a53565b6040518082815260200191505060405180910390f35b341561031457600080fd5b61031c610a59565b6040518082815260200191505060405180910390f35b341561033d57600080fd5b610345610a5f565b604051808273ffffffffffffffffffffffffffffffffffffffff1673ffffffffffffffffffffffffffffffffffffffff16815260200191505060405180910390f35b6103b3600480803573ffffffffffffffffffffffffffffffffffffffff1690602001909190505061052d565b6040518082815260200191505060405180910390f35b34156103d457600080fd5b6103dc610a88565b6040518082815260200191505060405180910390f35b34156103fd57600080fd5b610405610a8e565b6040518082815260200191505060405180910390f35b341561042657600080fd5b610452600480803573ffffffffffffffffffffffffffffffffffffffff16906020019091905050610a94565b604051808215151515815260200191505060405180910390f35b341561047757600080fd5b61047f610c18565b6040518082600381111561048f57fe5b60ff16815260200191505060405180910390f35b34156104ae57600080fd5b6104d66004808035906020019091908035906020019091908035906020019091905050610c2b565b005b34156104e357600080fd5b6104eb610d1e565b604051808273ffffffffffffffffffffffffffffffffffffffff1673ffffffffffffffffffffffffffffffffffffffff16815260200191505060405180910390f35b600080600280600381111561053e57fe5b600c60009054906101000a900460ff16600381111561055957fe5b14151561056557600080fd5b60003411151561057457600080fd5b600454421015151561058557600080fd5b60055442111561059c57610597610d44565b61072b565b6105a4610e7d565b156105b6576105b1610d44565b61072a565b34925060095460035403915081831115610610578192508373ffffffffffffffffffffffffffffffffffffffff166108fc8434039081150290604051600060405180830381858888f19350505050151561060f57600080fd5b5b600260009054906101000a900473ffffffffffffffffffffffffffffffffffffffff1673ffffffffffffffffffffffffffffffffffffffff166108fc849081150290604051600060405180830381858888f19350505050151561067257600080fd5b82600b60008673ffffffffffffffffffffffffffffffffffffffff1673ffffffffffffffffffffffffffffffffffffffff168152602001908152602001600020600082825401925050819055508260095401600981905550828214156106db576106da610d44565b5b8373ffffffffffffffffffffffffffffffffffffffff167f9c89e828e6cee6374b68147c9e753e41746aad98ba255a527a4fc0ac1868bff9846040518082815260200191505060405180910390a25b5b5050919050565b60065481565b60075481565b60085481565b60055481565b60006005544211151561076b5760045442036008540260075403905061077d565b60045460055403600854026007540390505b90565b6000600380600381111561079057fe5b600c60009054906101000a900460ff1660038111156107ab57fe5b1415156107b757600080fd5b6001600a54670de0b6b3a7640000600b60003373ffffffffffffffffffffffffffffffffffffffff1673ffffffffffffffffffffffffffffffffffffffff168152602001908152602001600020540281151561080f57fe5b040191506000600b60003373ffffffffffffffffffffffffffffffffffffffff1673ffffffffffffffffffffffffffffffffffffffff16815260200190815260200160002081905550600160009054906101000a900473ffffffffffffffffffffffffffffffffffffffff1673ffffffffffffffffffffffffffffffffffffffff1663a9059cbb33846000604051602001526040518363ffffffff167c0100000000000000000000000000000000000000000000000000000000028152600401808373ffffffffffffffffffffffffffffffffffffffff1673ffffffffffffffffffffffffffffffffffffffff16815260200182815260200192505050602060405180830381600087803b151561092557600080fd5b6102c65a03f1151561093657600080fd5b50505060405180519050505050565b600260009054906101000a900473ffffffffffffffffffffffffffffffffffffffff1681565b600b6020528060005260406000206000915090505481565b6000809054906101000a900473ffffffffffffffffffffffffffffffffffffffff1673ffffffffffffffffffffffffffffffffffffffff163373ffffffffffffffffffffffffffffffffffffffff161415156109de57600080fd5b60018060038111156109ec57fe5b600c60009054906101000a900460ff166003811115610a0757fe5b141515610a1357600080fd5b426004819055506201518060065402600454016005819055506002600c60006101000a81548160ff02191690836003811115610a4b57fe5b021790555050565b60035481565b60045481565b60008060009054906101000a900473ffffffffffffffffffffffffffffffffffffffff16905090565b60095481565b600a5481565b60008060009054906101000a900473ffffffffffffffffffffffffffffffffffffffff1673ffffffffffffffffffffffffffffffffffffffff163373ffffffffffffffffffffffffffffffffffffffff16141515610af157600080fd5b60008273ffffffffffffffffffffffffffffffffffffffff1614151515610b1757600080fd5b7ffcf23a92150d56e85e3a3d33b357493246e55783095eb6a733eb8439ffc752c86000809054906101000a900473ffffffffffffffffffffffffffffffffffffffff1683604051808373ffffffffffffffffffffffffffffffffffffffff1673ffffffffffffffffffffffffffffffffffffffff1681526020018273ffffffffffffffffffffffffffffffffffffffff1673ffffffffffffffffffffffffffffffffffffffff1681526020019250505060405180910390a1816000806101000a81548173ffffffffffffffffffffffffffffffffffffffff021916908373ffffffffffffffffffffffffffffffffffffffff16021790555060019050919050565b600c60009054906101000a900460ff1681565b6000809054906101000a900473ffffffffffffffffffffffffffffffffffffffff1673ffffffffffffffffffffffffffffffffffffffff163373ffffffffffffffffffffffffffffffffffffffff16141515610c8657600080fd5b6000806003811115610c9457fe5b600c60009054906101000a900460ff166003811115610caf57fe5b141515610cbb57600080fd5b6000841480610cca5750600083145b80610cd55750600082145b15610cdf57600080fd5b8360068190555082600781905550816008819055506001600c60006101000a81548160ff02191690836003811115610d1357fe5b021790555050505050565b600160009054906101000a900473ffffffffffffffffffffffffffffffffffffffff1681565b6003600c60006101000a81548160ff02191690836003811115610d6357fe5b0217905550610d7061074a565b600a81905550600160009054906101000a900473ffffffffffffffffffffffffffffffffffffffff1673ffffffffffffffffffffffffffffffffffffffff166340c10f19306001600a54670de0b6b3a764000060095402811515610dd057fe5b04016000604051602001526040518363ffffffff167c0100000000000000000000000000000000000000000000000000000000028152600401808373ffffffffffffffffffffffffffffffffffffffff1673ffffffffffffffffffffffffffffffffffffffff16815260200182815260200192505050602060405180830381600087803b1515610e5f57600080fd5b6102c65a03f11515610e7057600080fd5b5050506040518051905050565b600060055442119050905600a165627a7a72305820e5a34c5c085dba66097911f4c92004c229b20673e7cf16bbe280a4d4dd12f73c0029",
  "source": "pragma solidity ^0.4.18;\n\nimport './token/MintableToken.sol';\nimport './SafeMath.sol';\nimport './Ownable.sol';\n\n/**\n * @title DutchAuction\n * @notice Dutch Auction Crowdsale\n */\n contract DutchAuction is Ownable {\n\n     using SafeMath for uint256;\n     /*\n      *  Events\n      */\n     event BidSubmission(address indexed sender, uint256 amount);\n\n     /*\n      *  Storage\n      */\n     MintableToken public token;\n     address public wallet;\n     uint public ceiling;\n\n     uint public startTime;\n     uint public endTime;\n     uint public duration;\n     uint public inicialPrice;\n     uint public decreaseRate;\n\n     uint public totalReceived;\n     uint public finalPrice;\n\n     mapping (address => uint) public bids;\n     Stages public stage;\n\n     enum Stages {\n         AuctionDeployed,\n         AuctionSetup,\n         AuctionStarted,\n         AuctionEnded\n     }\n\n     /*\n      *  Modifiers\n      */\n     modifier atStage(Stages _stage) {\n         if (stage != _stage)\n             revert();\n         _;\n     }\n\n     modifier validPurchase() {\n       require(msg.value > 0);\n       require(block.timestamp >= startTime);\n       if(block.timestamp > endTime){\n         finalizeAuction();\n         return;\n       }\n       _;\n     }\n\n     /*\n      *  Public functions\n      */\n     /// @dev Contract constructor function sets owner\n     /// @param _wallet address Destination wallet\n     /// @param _ceiling uint Auction ceiling\n     function DutchAuction(address _wallet, address _token, uint _ceiling)\n         Ownable()\n         public\n     {\n         if (_wallet == 0 || _ceiling == 0)\n             revert();\n\n         //owner = msg.sender;\n         token = MintableToken(_token);\n         wallet = _wallet;\n         ceiling = _ceiling;\n         stage = Stages.AuctionDeployed;\n     }\n\n\n     function setup(uint _duration, uint _inicialPrice, uint _decreaseRate)\n         public\n         onlyOwner\n         atStage(Stages.AuctionDeployed)\n    {\n        if (_duration == 0 || _inicialPrice == 0 || _decreaseRate == 0)\n            revert();\n\n        duration = _duration;\n        inicialPrice = _inicialPrice;\n        decreaseRate = _decreaseRate;\n        stage = Stages.AuctionSetup;\n    }\n\n    /// @dev Starts auction and sets the duration\n    function startAuction()\n        public\n        onlyOwner\n        atStage(Stages.AuctionSetup)\n    {\n        startTime = now;\n        endTime = startTime + duration * 1 days;\n        stage = Stages.AuctionStarted;\n    }\n\n     /*\n      *  Fallback function\n      */\n     /// @dev If the auction is active, make a bid for msg.sender\n     function()\n         public\n         payable\n     {\n         if(stage != Stages.AuctionStarted)\n           revert();\n         bid(msg.sender);\n     }\n\n     /// @dev Allows to send a bid to the auction\n     /// @param receiver address Bid will be assigned to this address\n     function bid(address receiver)\n         public\n         payable\n         atStage(Stages.AuctionStarted)\n         validPurchase()\n         returns (uint amount)\n     {\n         if(hasReachedEndBlock()) {\n           finalizeAuction();\n           return;\n         }\n\n         amount = msg.value;\n         uint maxBid = ceiling - totalReceived;\n         if (amount > maxBid) {\n             amount = maxBid;\n             receiver.transfer(msg.value - amount);\n         }\n         wallet.transfer(amount);\n         bids[receiver] += amount;\n         totalReceived = totalReceived + amount;\n         if (maxBid == amount)\n             finalizeAuction();\n         BidSubmission(receiver, amount);\n     }\n\n     /// @dev Claims tokens for bidder after auction.\n     function claimTokens()\n         public\n         atStage(Stages.AuctionEnded)\n     {\n         //Add in this equation the number of decimal places in your token.\n         // If the token has 10 ** 18, the token count becomes:\n         // tokenCount = bids[msg.sender] * 10 ** 18 / finalPrice + 1;\n         uint tokenCount = bids[msg.sender] * 10 ** 18 / finalPrice + 1;\n         bids[msg.sender] = 0;\n         token.transfer(msg.sender, tokenCount);\n     }\n\n     /// @notice The price function calculates the token price in the current block.\n     /// @return Returns token price\n     function calcTokenPrice()\n         constant\n         public\n         returns (uint)\n     {\n         if (block.timestamp <= endTime) {\n            return inicialPrice - decreaseRate * (block.timestamp - startTime);\n         } else {\n            return inicialPrice - decreaseRate * (endTime - startTime);\n         }\n\n     }\n\n     /*\n      *  Private functions\n      */\n     function finalizeAuction()\n         private\n     {\n         stage = Stages.AuctionEnded;\n         finalPrice = calcTokenPrice();\n         // Crowdsale must be an authorized token minter\n         token.mint(this, totalReceived * 10 ** 18 / finalPrice + 1);\n     }\n\n     // creates the token to be sold.\n     // override this method to have crowdsale of a specific mintable token.\n     function createTokenContract() internal returns (MintableToken) {\n       return new MintableToken();\n     }\n\n     function hasReachedEndBlock() internal returns(bool) {\n       return block.timestamp > endTime;\n     }\n }\n",
  "sourcePath": "/home/jgcarv/Dev/Ethereum/ZepSolutions/ZToken/contracts/DutchAuction.sol",
  "compiler": {
    "name": "solc",
    "version": "0.4.18+commit.9cf6e910.Emscripten.clang"
  },
  "schemaVersion": "1.0.1",
  "updatedAt": "2017-12-19T18:01:55.071Z"
}